{
  "contractName": "Parinsurance",
  "abi": [
    {
      "constant": true,
      "inputs": [
        {
          "name": "",
          "type": "string"
        }
      ],
      "name": "insurers",
      "outputs": [
        {
          "name": "companyId",
          "type": "uint256"
        },
        {
          "name": "companyName",
          "type": "string"
        },
        {
          "name": "empId",
          "type": "uint256"
        },
        {
          "name": "empName",
          "type": "string"
        },
        {
          "name": "empEmail",
          "type": "string"
        },
        {
          "name": "isInsured",
          "type": "bool"
        },
        {
          "components": [
            {
              "name": "flightName",
              "type": "string"
            },
            {
              "name": "flightDate",
              "type": "string"
            },
            {
              "name": "flightTime",
              "type": "string"
            },
            {
              "name": "isDelayed",
              "type": "bool"
            }
          ],
          "name": "flight",
          "type": "tuple"
        },
        {
          "components": [
            {
              "name": "claimsAmt",
              "type": "uint256"
            },
            {
              "name": "isClaimsPaid",
              "type": "bool"
            }
          ],
          "name": "claim",
          "type": "tuple"
        }
      ],
      "payable": false,
      "stateMutability": "view",
      "type": "function"
    },
    {
      "constant": true,
      "inputs": [],
      "name": "insCount",
      "outputs": [
        {
          "name": "",
          "type": "uint256"
        }
      ],
      "payable": false,
      "stateMutability": "view",
      "type": "function"
    },
    {
      "inputs": [],
      "payable": false,
      "stateMutability": "nonpayable",
      "type": "constructor"
    }
  ],
  "bytecode": "0x60806040523480156200001157600080fd5b50620000586040518060400160405280600781526020017f496e666f737973000000000000000000000000000000000000000000000000008152506200005e60201b60201c565b62000466565b60405180610100016040528060018152602001828152602001600081526020016040518060400160405280600981526020017f456d706c6f79656531000000000000000000000000000000000000000000000081525081526020016040518060400160405280601681526020017f737567616d2e73686574747940676d61696c2e636f6d00000000000000000000815250815260200160011515815260200160405180608001604052806040518060400160405280600881526020017f416972496e64696100000000000000000000000000000000000000000000000081525081526020016040518060400160405280600a81526020017f323031392d30392d30350000000000000000000000000000000000000000000081525081526020016040518060400160405280600581526020017f31303a30300000000000000000000000000000000000000000000000000000008152508152602001600015158152508152602001604051806040016040528060008152602001600015158152508152506001604051620001f19062000444565b90815260200160405180910390206000820151816000015560208201518160010190805190602001906200022792919062000353565b506040820151816002015560608201518160030190805190602001906200025092919062000353565b5060808201518160040190805190602001906200026f92919062000353565b5060a08201518160050160006101000a81548160ff02191690831515021790555060c0820151816006016000820151816000019080519060200190620002b792919062000353565b506020820151816001019080519060200190620002d692919062000353565b506040820151816002019080519060200190620002f592919062000353565b5060608201518160030160006101000a81548160ff021916908315150217905550505060e082015181600a016000820151816000015560208201518160010160006101000a81548160ff021916908315150217905550505090505050565b828054600181600116156101000203166002900490600052602060002090601f016020900481019282601f106200039657805160ff1916838001178555620003c7565b82800160010185558215620003c7579182015b82811115620003c6578251825591602001919060010190620003a9565b5b509050620003d69190620003da565b5090565b620003ff91905b80821115620003fb576000816000905550600101620003e1565b5090565b90565b6000620004116003836200045b565b91507f31313100000000000000000000000000000000000000000000000000000000006000830152600382019050919050565b6000620004518262000402565b9150819050919050565b600081905092915050565b6108c480620004766000396000f3fe608060405234801561001057600080fd5b50600436106100365760003560e01c80635d2355901461003b5780639e92e56414610072575b600080fd5b61005560048036036100509190810190610557565b610090565b604051610069989796959493929190610701565b60405180910390f35b61007a6104fd565b60405161008791906106e6565b60405180910390f35b600181805160208101820180518482526020830160208501208183528095505050505050600091509050806000015490806001018054600181600116156101000203166002900480601f0160208091040260200160405190810160405280929190818152602001828054600181600116156101000203166002900480156101585780601f1061012d57610100808354040283529160200191610158565b820191906000526020600020905b81548152906001019060200180831161013b57829003601f168201915b505050505090806002015490806003018054600181600116156101000203166002900480601f0160208091040260200160405190810160405280929190818152602001828054600181600116156101000203166002900480156101fc5780601f106101d1576101008083540402835291602001916101fc565b820191906000526020600020905b8154815290600101906020018083116101df57829003601f168201915b505050505090806004018054600181600116156101000203166002900480601f01602080910402602001604051908101604052809291908181526020018280546001816001161561010002031660029004801561029a5780601f1061026f5761010080835404028352916020019161029a565b820191906000526020600020905b81548152906001019060200180831161027d57829003601f168201915b5050505050908060050160009054906101000a900460ff169080600601604051806080016040529081600082018054600181600116156101000203166002900480601f01602080910402602001604051908101604052809291908181526020018280546001816001161561010002031660029004801561035b5780601f106103305761010080835404028352916020019161035b565b820191906000526020600020905b81548152906001019060200180831161033e57829003601f168201915b50505050508152602001600182018054600181600116156101000203166002900480601f0160208091040260200160405190810160405280929190818152602001828054600181600116156101000203166002900480156103fd5780601f106103d2576101008083540402835291602001916103fd565b820191906000526020600020905b8154815290600101906020018083116103e057829003601f168201915b50505050508152602001600282018054600181600116156101000203166002900480601f01602080910402602001604051908101604052809291908181526020018280546001816001161561010002031660029004801561049f5780601f106104745761010080835404028352916020019161049f565b820191906000526020600020905b81548152906001019060200180831161048257829003601f168201915b505050505081526020016003820160009054906101000a900460ff1615151515815250509080600a01604051806040016040529081600082015481526020016001820160009054906101000a900460ff161515151581525050905088565b60005481565b600082601f83011261051457600080fd5b8135610527610522826107c8565b61079b565b9150808252602083016020830185838301111561054357600080fd5b61054e838284610837565b50505092915050565b60006020828403121561056957600080fd5b600082013567ffffffffffffffff81111561058357600080fd5b61058f84828501610503565b91505092915050565b6105a181610821565b82525050565b6105b081610821565b82525050565b60006105c1826107f4565b6105cb81856107ff565b93506105db818560208601610846565b6105e481610879565b840191505092915050565b60006105fa826107f4565b6106048185610810565b9350610614818560208601610846565b61061d81610879565b840191505092915050565b60408201600082015161063e60008501826106c8565b5060208201516106516020850182610598565b50505050565b6000608083016000830151848203600086015261067482826105b6565b9150506020830151848203602086015261068e82826105b6565b915050604083015184820360408601526106a882826105b6565b91505060608301516106bd6060860182610598565b508091505092915050565b6106d18161082d565b82525050565b6106e08161082d565b82525050565b60006020820190506106fb60008301846106d7565b92915050565b600061012082019050610717600083018b6106d7565b8181036020830152610729818a6105ef565b905061073860408301896106d7565b818103606083015261074a81886105ef565b9050818103608083015261075e81876105ef565b905061076d60a08301866105a7565b81810360c083015261077f8185610657565b905061078e60e0830184610628565b9998505050505050505050565b6000604051905081810181811067ffffffffffffffff821117156107be57600080fd5b8060405250919050565b600067ffffffffffffffff8211156107df57600080fd5b601f19601f8301169050602081019050919050565b600081519050919050565b600082825260208201905092915050565b600082825260208201905092915050565b60008115159050919050565b6000819050919050565b82818337600083830152505050565b60005b83811015610864578082015181840152602081019050610849565b83811115610873576000848401525b50505050565b6000601f19601f830116905091905056fea265627a7a723058206c491d9f289bb36e02fc06601cb8a9c5c2c637ae9d7c05ab944ac84a3508a73c6c6578706572696d656e74616cf50037",
  "source": "pragma solidity 0.5.8;\r\npragma experimental ABIEncoderV2;\r\n\r\ncontract Parinsurance {\r\n    // Model a Insurance Smart Contract\r\n    struct Insurer {\r\n        uint companyId;\r\n        string companyName;\r\n        uint empId;\r\n        string empName;\r\n        string empEmail;\r\n       bool isInsured;\r\n       Flight flight;\r\n       Claims claim; \r\n    }\r\n\r\n    struct Flight {\r\n\r\n        string flightName;\r\n        string flightDate;\r\n        string flightTime;\r\n        bool isDelayed;\r\n    }\r\n\r\n    struct Claims {\r\n\r\n        uint claimsAmt;\r\n        bool isClaimsPaid;\r\n    }\r\n\r\n\r\n    // Store Insurer Count\r\n    uint public insCount;\r\n\r\n\r\n    // Read/write Insurers\r\n    mapping(string => Insurer) public insurers;\r\n\r\n\r\n    // Constructor\r\n    constructor () public {\r\n        addInsurer(\"Infosys\");\r\n       // addInsurer(\"TCS\");\r\n    }\r\n\r\n    function addInsurer (string memory _name) private {\r\n        //insCount ++;\r\n        insurers[\"111\"] = Insurer(1, _name,0,\"Employee1\",\"sugam.shetty@gmail.com\",true,Flight(\"AirIndia\",\"2019-09-05\",\"10:00\",false),Claims(0,false));\r\n\r\n    }\r\n\r\n    \r\n\r\n\r\n}\r\n",
  "sourcePath": "C:/myWork/Learn/Blockchain/parinsurance/contracts/Parinsurance.sol",
  "compiler": {
    "name": "solc",
    "version": "0.5.8+commit.23d335f2.Emscripten.clang"
  },
  "schemaVersion": "3.0.15",
  "updatedAt": "2019-09-06T17:33:30.745Z",
  "devdoc": {
    "methods": {}
  },
  "userdoc": {
    "methods": {}
  }
}